{
  "contractName": "CollectibleFactory",
  "abi": [
    {
      "constant": true,
      "inputs": [
        {
          "name": "",
          "type": "uint256"
        }
      ],
      "name": "collectibles",
      "outputs": [
        {
          "name": "name",
          "type": "string"
        },
        {
          "name": "hash",
          "type": "string"
        }
      ],
      "payable": false,
      "stateMutability": "view",
      "type": "function"
    },
    {
      "constant": true,
      "inputs": [
        {
          "name": "",
          "type": "uint256"
        }
      ],
      "name": "collectibleToOwner",
      "outputs": [
        {
          "name": "",
          "type": "address"
        }
      ],
      "payable": false,
      "stateMutability": "view",
      "type": "function"
    },
    {
      "constant": false,
      "inputs": [],
      "name": "renounceOwnership",
      "outputs": [],
      "payable": false,
      "stateMutability": "nonpayable",
      "type": "function"
    },
    {
      "constant": true,
      "inputs": [
        {
          "name": "",
          "type": "uint256"
        }
      ],
      "name": "authMediaServices",
      "outputs": [
        {
          "name": "name",
          "type": "string"
        },
        {
          "name": "url",
          "type": "string"
        }
      ],
      "payable": false,
      "stateMutability": "view",
      "type": "function"
    },
    {
      "constant": true,
      "inputs": [
        {
          "name": "",
          "type": "uint256"
        }
      ],
      "name": "collectibleToCreator",
      "outputs": [
        {
          "name": "mediaPlatform",
          "type": "uint256"
        },
        {
          "name": "identifier",
          "type": "string"
        }
      ],
      "payable": false,
      "stateMutability": "view",
      "type": "function"
    },
    {
      "constant": true,
      "inputs": [],
      "name": "owner",
      "outputs": [
        {
          "name": "",
          "type": "address"
        }
      ],
      "payable": false,
      "stateMutability": "view",
      "type": "function"
    },
    {
      "constant": true,
      "inputs": [],
      "name": "isOwner",
      "outputs": [
        {
          "name": "",
          "type": "bool"
        }
      ],
      "payable": false,
      "stateMutability": "view",
      "type": "function"
    },
    {
      "constant": false,
      "inputs": [
        {
          "name": "newOwner",
          "type": "address"
        }
      ],
      "name": "transferOwnership",
      "outputs": [],
      "payable": false,
      "stateMutability": "nonpayable",
      "type": "function"
    },
    {
      "anonymous": false,
      "inputs": [
        {
          "indexed": true,
          "name": "previousOwner",
          "type": "address"
        },
        {
          "indexed": true,
          "name": "newOwner",
          "type": "address"
        }
      ],
      "name": "OwnershipTransferred",
      "type": "event"
    },
    {
      "constant": false,
      "inputs": [
        {
          "name": "_name",
          "type": "string"
        },
        {
          "name": "_hash",
          "type": "string"
        }
      ],
      "name": "createCollectible",
      "outputs": [
        {
          "name": "",
          "type": "uint256"
        }
      ],
      "payable": false,
      "stateMutability": "nonpayable",
      "type": "function"
    },
    {
      "constant": true,
      "inputs": [
        {
          "name": "_owner",
          "type": "address"
        }
      ],
      "name": "getCollectiblesOfOwner",
      "outputs": [
        {
          "name": "",
          "type": "uint256[]"
        }
      ],
      "payable": false,
      "stateMutability": "view",
      "type": "function"
    },
    {
      "constant": false,
      "inputs": [
        {
          "name": "_name",
          "type": "string"
        },
        {
          "name": "_url",
          "type": "string"
        }
      ],
      "name": "addAuthMediaService",
      "outputs": [],
      "payable": false,
      "stateMutability": "nonpayable",
      "type": "function"
    }
  ],
  "bytecode": "0x6080604052336000806101000a81548173ffffffffffffffffffffffffffffffffffffffff021916908373ffffffffffffffffffffffffffffffffffffffff1602179055506000809054906101000a900473ffffffffffffffffffffffffffffffffffffffff1673ffffffffffffffffffffffffffffffffffffffff16600073ffffffffffffffffffffffffffffffffffffffff167f8be0079c531659141344cd1fd0a4f28419497f9722a3daafe3b4186f6b6457e060405160405180910390a36110ce806100cf6000396000f3006080604052600436106100af576000357c0100000000000000000000000000000000000000000000000000000000900463ffffffff1680630a09859d146100b457806327fbc637146101c6578063715018a614610233578063791fa8171461024a5780637efa131d1461035c5780638da5cb5b146104095780638f32d59b1461046057806390691a041461048f578063d2559e9914610527578063f2fde38b146105ea578063fc7034561461062d575b600080fd5b3480156100c057600080fd5b506100df60048036038101908080359060200190929190505050610680565b604051808060200180602001838103835285818151815260200191508051906020019080838360005b83811015610123578082015181840152602081019050610108565b50505050905090810190601f1680156101505780820380516001836020036101000a031916815260200191505b50838103825284818151815260200191508051906020019080838360005b8381101561018957808201518184015260208101905061016e565b50505050905090810190601f1680156101b65780820380516001836020036101000a031916815260200191505b5094505050505060405180910390f35b3480156101d257600080fd5b506101f1600480360381019080803590602001909291905050506107e3565b604051808273ffffffffffffffffffffffffffffffffffffffff1673ffffffffffffffffffffffffffffffffffffffff16815260200191505060405180910390f35b34801561023f57600080fd5b50610248610816565b005b34801561025657600080fd5b50610275600480360381019080803590602001909291905050506108e8565b604051808060200180602001838103835285818151815260200191508051906020019080838360005b838110156102b957808201518184015260208101905061029e565b50505050905090810190601f1680156102e65780820380516001836020036101000a031916815260200191505b50838103825284818151815260200191508051906020019080838360005b8381101561031f578082015181840152602081019050610304565b50505050905090810190601f16801561034c5780820380516001836020036101000a031916815260200191505b5094505050505060405180910390f35b34801561036857600080fd5b5061038760048036038101908080359060200190929190505050610a4b565b6040518083815260200180602001828103825283818151815260200191508051906020019080838360005b838110156103cd5780820151818401526020810190506103b2565b50505050905090810190601f1680156103fa5780820380516001836020036101000a031916815260200191505b50935050505060405180910390f35b34801561041557600080fd5b5061041e610b07565b604051808273ffffffffffffffffffffffffffffffffffffffff1673ffffffffffffffffffffffffffffffffffffffff16815260200191505060405180910390f35b34801561046c57600080fd5b50610475610b30565b604051808215151515815260200191505060405180910390f35b34801561049b57600080fd5b506104d0600480360381019080803573ffffffffffffffffffffffffffffffffffffffff169060200190929190505050610b87565b6040518080602001828103825283818151815260200191508051906020019060200280838360005b838110156105135780820151818401526020810190506104f8565b505050509050019250505060405180910390f35b34801561053357600080fd5b506105d4600480360381019080803590602001908201803590602001908080601f0160208091040260200160405190810160405280939291908181526020018383808284378201915050505050509192919290803590602001908201803590602001908080601f0160208091040260200160405190810160405280939291908181526020018383808284378201915050505050509192919290505050610cba565b6040518082815260200191505060405180910390f35b3480156105f657600080fd5b5061062b600480360381019080803573ffffffffffffffffffffffffffffffffffffffff169060200190929190505050610de8565b005b34801561063957600080fd5b5061067e600480360381019080803590602001908201803590602001919091929391929390803590602001908201803590602001919091929391929390505050610e07565b005b60028181548110151561068f57fe5b9060005260206000209060020201600091509050806000018054600181600116156101000203166002900480601f01602080910402602001604051908101604052809291908181526020018280546001816001161561010002031660029004801561073b5780601f106107105761010080835404028352916020019161073b565b820191906000526020600020905b81548152906001019060200180831161071e57829003601f168201915b505050505090806001018054600181600116156101000203166002900480601f0160208091040260200160405190810160405280929190818152602001828054600181600116156101000203166002900480156107d95780601f106107ae576101008083540402835291602001916107d9565b820191906000526020600020905b8154815290600101906020018083116107bc57829003601f168201915b5050505050905082565b60046020528060005260406000206000915054906101000a900473ffffffffffffffffffffffffffffffffffffffff1681565b61081e610b30565b151561082957600080fd5b600073ffffffffffffffffffffffffffffffffffffffff166000809054906101000a900473ffffffffffffffffffffffffffffffffffffffff1673ffffffffffffffffffffffffffffffffffffffff167f8be0079c531659141344cd1fd0a4f28419497f9722a3daafe3b4186f6b6457e060405160405180910390a360008060006101000a81548173ffffffffffffffffffffffffffffffffffffffff021916908373ffffffffffffffffffffffffffffffffffffffff160217905550565b6001818154811015156108f757fe5b9060005260206000209060020201600091509050806000018054600181600116156101000203166002900480601f0160208091040260200160405190810160405280929190818152602001828054600181600116156101000203166002900480156109a35780601f10610978576101008083540402835291602001916109a3565b820191906000526020600020905b81548152906001019060200180831161098657829003601f168201915b505050505090806001018054600181600116156101000203166002900480601f016020809104026020016040519081016040528092919081815260200182805460018160011615610100020316600290048015610a415780601f10610a1657610100808354040283529160200191610a41565b820191906000526020600020905b815481529060010190602001808311610a2457829003601f168201915b5050505050905082565b6003602052806000526040600020600091509050806000015490806001018054600181600116156101000203166002900480601f016020809104026020016040519081016040528092919081815260200182805460018160011615610100020316600290048015610afd5780601f10610ad257610100808354040283529160200191610afd565b820191906000526020600020905b815481529060010190602001808311610ae057829003601f168201915b5050505050905082565b60008060009054906101000a900473ffffffffffffffffffffffffffffffffffffffff16905090565b60008060009054906101000a900473ffffffffffffffffffffffffffffffffffffffff1673ffffffffffffffffffffffffffffffffffffffff163373ffffffffffffffffffffffffffffffffffffffff1614905090565b6060600060606000809250600560008673ffffffffffffffffffffffffffffffffffffffff1673ffffffffffffffffffffffffffffffffffffffff16815260200190815260200160002054604051908082528060200260200182016040528015610c005781602001602082028038833980820191505090505b509150600090505b600280549050811015610caf578473ffffffffffffffffffffffffffffffffffffffff166004600083815260200190815260200160002060009054906101000a900473ffffffffffffffffffffffffffffffffffffffff1673ffffffffffffffffffffffffffffffffffffffff161415610ca257808284815181101515610c8b57fe5b906020019060200201818152505082806001019350505b8080600101915050610c08565b819350505050919050565b6000806002604080519081016040528086815260200185815250908060018154018082558091505090600182039060005260206000209060020201600090919290919091506000820151816000019080519060200190610d1b929190610ffd565b506020820151816001019080519060200190610d38929190610ffd565b5050509050336004600083815260200190815260200160002060006101000a81548173ffffffffffffffffffffffffffffffffffffffff021916908373ffffffffffffffffffffffffffffffffffffffff160217905550600560003373ffffffffffffffffffffffffffffffffffffffff1673ffffffffffffffffffffffffffffffffffffffff168152602001908152602001600020600081548092919060010191905055508091505092915050565b610df0610b30565b1515610dfb57600080fd5b610e0481610f03565b50565b610e0f610b30565b1515610e1a57600080fd5b6001604080519081016040528086868080601f016020809104026020016040519081016040528093929190818152602001838380828437820191505050505050815260200184848080601f016020809104026020016040519081016040528093929190818152602001838380828437820191505050505050815250908060018154018082558091505090600182039060005260206000209060020201600090919290919091506000820151816000019080519060200190610edc929190610ffd565b506020820151816001019080519060200190610ef9929190610ffd565b5050505050505050565b600073ffffffffffffffffffffffffffffffffffffffff168173ffffffffffffffffffffffffffffffffffffffff1614151515610f3f57600080fd5b8073ffffffffffffffffffffffffffffffffffffffff166000809054906101000a900473ffffffffffffffffffffffffffffffffffffffff1673ffffffffffffffffffffffffffffffffffffffff167f8be0079c531659141344cd1fd0a4f28419497f9722a3daafe3b4186f6b6457e060405160405180910390a3806000806101000a81548173ffffffffffffffffffffffffffffffffffffffff021916908373ffffffffffffffffffffffffffffffffffffffff16021790555050565b828054600181600116156101000203166002900490600052602060002090601f016020900481019282601f1061103e57805160ff191683800117855561106c565b8280016001018555821561106c579182015b8281111561106b578251825591602001919060010190611050565b5b509050611079919061107d565b5090565b61109f91905b8082111561109b576000816000905550600101611083565b5090565b905600a165627a7a72305820999d8360f0c9b0283cc2613ad912ec5101da7bcab867a1914b8c07e1878c07d50029",
  "source": "pragma solidity ^0.4.0;\r\n\r\nimport  \"../node_modules/openzeppelin-solidity/contracts/ownership/Ownable.sol\";\r\n\r\ncontract CollectibleFactory is Ownable {\r\n\r\n    struct Collectible  {\r\n\r\n        string name;\r\n        string hash;\r\n    }\r\n\r\n    struct Creator {\r\n        uint mediaPlatform;\r\n        string identifier;\r\n    }\r\n\r\n    struct AuthMediaService {\r\n        string name;\r\n        string url;\r\n    }\r\n\r\n    AuthMediaService[] public authMediaServices;\r\n    Collectible[] public collectibles;\r\n\r\n    mapping (uint => Creator) public collectibleToCreator;\r\n    mapping (uint => address) public collectibleToOwner;\r\n    mapping (address => uint) ownerCollectibleCount;\r\n\r\n    function createCollectible(string _name, string _hash) public returns (uint) {\r\n\r\n        uint id = collectibles.push(Collectible(_name, _hash));\r\n        collectibleToOwner[id] = msg.sender;\r\n        ownerCollectibleCount[msg.sender] ++;\r\n        return id;\r\n    }\r\n\r\n/*    function createCollectible(string _name, string _hash, uint _mediaPlatform, string _identifier ) external returns (uint) {\r\n\r\n        uint id = createCollectible(_name, _hash);\r\n        collectibleToCreator[id] = Creator(_mediaPlatform, _identifier);\r\n\r\n        return id;\r\n    }*/\r\n\r\n    function getCollectiblesOfOwner(address _owner) public view returns  (uint[]) {\r\n\r\n        uint counter = 0;\r\n        uint[] memory result = new uint[](ownerCollectibleCount[_owner]);\r\n        for (uint i = 0; i < collectibles.length; i++) {\r\n          if (collectibleToOwner[i] == _owner) {\r\n            result[counter] = i;\r\n            counter++;\r\n            }\r\n        }\r\n\r\n        return result;\r\n\r\n    }\r\n\r\n    function addAuthMediaService(string _name, string _url) external onlyOwner {\r\n      authMediaServices.push(AuthMediaService(_name, _url));\r\n    }\r\n\r\n\r\n\r\n}\r\n",
  "sourcePath": "C:\\workspace\\angular_dapp_new\\contracts\\CollectibleFactory.sol",
  "compiler": {
    "name": "solc",
    "version": "0.4.24+commit.e67f0147.Emscripten.clang"
  },
  "schemaVersion": "2.0.1",
  "updatedAt": "2019-01-08T14:00:55.761Z"
}